:100000000C945D000C9485000C9485000C94850084
:100010000C9485000C9485000C9485000C9485004C
:100020000C9485000C9485000C9485000C941303AB
:100030000C9485000C9485000C9485000C9485002C
:100040000C94C9020C9485000C9485000C948500D6
:100050000C9485000C9485000C9485000C9485000C
:100060000C9485000C94850000000008000201003B
:100070000003040700000000000000000000000072
:10008000250028002B0000000000240027002A0083
:10009000040404040404040402020202020203032E
:1000A0000303030301020408102040800102040836
:1000B0001020010204081020D40311241FBECFEF2A
:1000C000D8E0DEBFCDBF11E0A0E0B1E0E8EDF1E1A6
:1000D00002C005900D92A831B107D9F721E0A8E13F
:1000E000B1E001C01D92AC36B207E1F710E0CDE5FA
:1000F000D0E004C02197FE010E940706CC35D1074D
:10010000C9F70E941D040C94EA080C94000090E0CA
:10011000FC01EC55FF4F2491FC01E057FF4F849107
:10012000882399F090E0880F991FFC01EA57FF4F50
:10013000A591B491FC01E458FF4F859194918FB73C
:10014000F894EC91E22BEC938FBF0895CF92DF925D
:10015000EF92FF920F931F93CF93DF936C017A017D
:100160008B01C0E0D0E0CE15DF0589F0D8016D919C
:100170008D01D601ED91FC910190F081E02DC60139
:100180000995892B11F47E0102C02196ECCFC7019D
:10019000DF91CF911F910F91FF90EF90DF90CF9063
:1001A000089590E0FC01E859FF4F3491FC01EC55B3
:1001B000FF4F2491FC01E057FF4FE491EE2309F437
:1001C0003BC0332339F1333091F038F43130A9F0AA
:1001D000323001F584B58F7D12C0373091F0383060
:1001E000A1F03430B9F4809180008F7D03C08091FC
:1001F00080008F77809380000DC084B58F7784BD99
:1002000009C08091B0008F7703C08091B0008F7DCE
:100210008093B000F0E0EE0FFF1FE458FF4FA59170
:10022000B4918FB7F894EC91611103C020952E23FF
:1002300001C02E2B2C938FBF0895CF93DF93EC0139
:1002400060E08E810E94D10061E08E810E94D10029
:1002500060E08E810E94D1008BE891E00197F1F778
:10026000DF91CF910895CF92DF92EF92FF920F939B
:100270001F93CF93DF937C016C0187E0C80ED11CE4
:10028000C0E0D0E0062F10E0B8010C2E02C075953A
:1002900067950A94E2F76170F60181916F010E94FF
:1002A000D1002196C430D10579F7C701DF91CF91F4
:1002B0001F910F91FF90EF90DF90CF900C941D0154
:1002C000CF92DF92EF92FF920F931F93CF93DF9322
:1002D000EC01F62E642F8C810E94D1008D818F3F1E
:1002E00019F060E00E94D1008F850F2D10E084FF8F
:1002F00025C06E0187E0C80ED11CE12CF12CB8019D
:100300000E2C02C0759567950A94E2F76170F601AC
:1003100081916F010E94D100FFEFEF1AFF0A88E080
:10032000E816F10461F7CE01DF91CF911F910F9193
:10033000FF90EF90DF90CF900C941D01B80184E006
:10034000759567958A95E1F7CE010E9433016F2D6F
:10035000CE01DF91CF911F910F91FF90EF90DF9031
:10036000CF900C94330141E00E94600181E090E065
:10037000089540E00C946001EF92FF920F931F9359
:10038000CF93DF93EC01623018F08F8588608F8700
:100390006B8B1C8A80E48D8B80E18E8B80E58F8B4C
:1003A0008C810E9487008D818F3F11F00E94870011
:1003B0008E810E9487007E0187E0E80EF11C00E03C
:1003C00010E08F8584FD03C084E090E002C088E0E7
:1003D00090E00817190744F4F70181917F010E940A
:1003E00087000F5F1F4FEDCF8BE39DE00197F1F783
:1003F00060E08C810E94D10060E08E810E94D1007B
:100400008D818F3F19F060E00E94D1006F8564FDFF
:100410001DC063E0CE010E9433010BE416E4C80165
:100420000197F1F763E0CE010E943301C801019703
:10043000F1F763E0CE010E94330183E592E001977A
:10044000F1F762E0CE010E94330116C06062CE0176
:100450000E94B9018BE496E40197F1F76F85606221
:10046000CE010E94B90183E592E00197F1F76F8513
:100470006062CE010E94B9016F856062CE010E9468
:10048000B90184E0888B6CE0CE010E94B90161E083
:10049000CE010E94B9018BE39FE10197F1F782E061
:1004A000898B66E0CE01DF91CF911F910F91FF9074
:1004B000EF900C94B901089580E090E00895CF93F7
:1004C000DF93C82F682F661F6627661F82E00E9491
:1004D000D100D0E0BE0186E0759567958A95E1F779
:1004E000617083E00E94D100BE0195E0759567952B
:1004F0009A95E1F7617084E00E94D10024E0D595DF
:10050000C7952A95E1F76C2F617085E0DF91CF9157
:100510000C94D100CF93C82F0E945F022B9A2B9886
:100520008C2F8295807F0E945F022B9A2B98CF910F
:100530000895CF93DF93C2E6D1E08991882321F01B
:100540002C9A0E948A02F9CFDF91CF9108952C98BE
:100550000C948A0290917C00907F90937C00909103
:100560007C00892B80937C0080917A00806480934A
:100570007A0080917A00806480937A0080917A007A
:1005800086FDFCCF809178009091790008950E94BB
:100590000D061F920F920FB60F9211242F933F93C7
:1005A0008F939F93AF93BF9380915E0190915F0172
:1005B000A0916001B091610130915D0123E0230FB2
:1005C0002D3720F40196A11DB11D05C026E8230F8B
:1005D0000296A11DB11D20935D0180935E01909351
:1005E0005F01A0936001B0936101809159019091E6
:1005F0005A01A0915B01B0915C010196A11DB11D52
:100600008093590190935A01A0935B01B0935C01D0
:10061000BF91AF919F918F913F912F910F900FBEFE
:100620000F901F9018951F920F920FB60F921124E2
:100630002F933F934F935F936F937F938F939F93EA
:10064000AF93BF93EF93FF938091580187FF05C04D
:1006500010928500109284001BC020915801022E38
:10066000000C330B8091570190E02817390784F470
:1006700080915801082E000C990BFC01EE0FFF1F12
:100680008E0F9F1FFC01ED5CFE4F808186FD15C023
:10069000809158018F5F8093580120915801022E5C
:1006A000000C330B8091570190E028173907C4F4F0
:1006B000809158018C3064F113C080915801082E4C
:1006C000000C990BFC01EE0FFF1F8E0F9F1FFC010A
:1006D000ED5CFE4F808160E08F730E94D100D8CF27
:1006E0008091840090918500049680349C4918F490
:1006F00080E49CE905C08091840090918500049677
:1007000090938900809388008FEF809358013BC0BD
:10071000209184003091850080915801082E000CB2
:10072000990BFC01EE0FFF1F8E0F9F1FFC01ED5C6C
:10073000FE4F81819281820F931F90938900809355
:10074000880080915801082E000C990BFC01EE0FD7
:10075000FF1F8E0F9F1FFC01ED5CFE4F808186FF07
:1007600012C080915801082E000C990BFC01EE0F6D
:10077000FF1F8E0F9F1FFC01ED5CFE4F808161E02B
:100780008F730E94D100FF91EF91BF91AF919F9124
:100790008F917F916F915F914F913F912F910F902A
:1007A0000FBE0F901F901895809157018C30A0F4C8
:1007B00091E0980F909357018093300190E0FC01F5
:1007C000EE0FFF1F8E0F9F1FFC01ED5CFE4F88EBAD
:1007D0009BE09283818303C08FEF8093300110925E
:1007E0001B0110921A018CE091E090931901809303
:1007F00018018CE080931C018FEF80931D018BE02A
:1008000080931E0185E080931F0184E08093200186
:1008100083E08093210182E08093220110922301E2
:1008200010922401109225011092260110922701A6
:1008300061E088E191E00C94BC0162E088E191E024
:100840000E94BC0160E488E191E00E94B901C0E02F
:10085000D1E0699188E191E00E94B30121E0C830C4
:10086000D207B9F783E80E94A70260E088E191E02F
:100870000E94B30180918000826A80938000809101
:1008800081008B618093810087E893E190938700DA
:1008900080938600219A80917C00806480937C0004
:1008A00080917A00806C80937A0080E480937C0051
:1008B00087E880937A0082E890E0909389008093A3
:1008C000880004E111E082E6E82E81E0F82E9BE347
:1008D000892E9FE1992E80E00E94AA026C0181E09E
:1008E0000E94AA025C01E601B601DD0C880B990B9F
:1008F0000E940E052DEC3CEC4CE45EE30E94720578
:100900000E94D6042B013C016B01B5010B2C000C9D
:10091000880B990B0E940E052DEC3CEC4CE45EE339
:100920000E9472050E94D6046415750514F0E50155
:1009300001C0B2017F936F931F930F93FF92EF92C9
:100940000E941206D0938900C09388008FEF93EC29
:1009500029E0815090402040E1F700C0000080E88D
:100960000E94A7020E9499020F900F900F900F9083
:100970000F900F9084E6C816D1040CF0ACCF61E064
:1009800088E191E00E94B901C4010197F1F70E944A
:10099000990283E80E94A7029FEF29EF80E091501F
:1009A00020408040E1F700C0000095CF0E94DD04A8
:1009B0006894B1110C946C0508950E94510588F05B
:1009C0009F5798F0B92F9927B751B0F0E1F0660F13
:1009D000771F881F991F1AF0BA95C9F714C0B13054
:1009E00091F00E946B05B1E008950C946B05672FA0
:1009F000782F8827B85F39F0B93FCCF38695779583
:100A00006795B395D9F73EF490958095709561956B
:100A10007F4F8F4F9F4F0895E89409C097FB3EF496
:100A200090958095709561957F4F8F4F9F4F99233B
:100A3000A9F0F92F96E9BB279395F69587957795B9
:100A40006795B795F111F8CFFAF4BB0F11F460FF79
:100A50001BC06F5F7F4F8F4F9F4F16C0882311F0D1
:100A600096E911C0772321F09EE8872F762F05C0E5
:100A7000662371F096E8862F70E060E02AF09A9580
:100A8000660F771F881FDAF7880F9695879597F975
:100A9000089557FD9058440F551F59F05F3F71F06E
:100AA0004795880F97FB991F61F09F3F79F08795D5
:100AB0000895121613061406551FF2CF4695F1DF5E
:100AC00008C0161617061806991FF1CF86957105EE
:100AD000610508940895E894BB2766277727CB0122
:100AE00097F908950E9485050C94F6050E94E80583
:100AF00038F00E94EF0520F0952311F00C94DF05EB
:100B00000C94E50511240C946C050E94490570F3C2
:100B1000959FC1F3950F50E0551F629FF001729FA2
:100B2000BB27F00DB11D639FAA27F00DB11DAA1FB1
:100B3000649F6627B00DA11D661F829F2227B00DFE
:100B4000A11D621F739FB00DA11D621F839FA00D89
:100B5000611D221F749F3327A00D611D231F849FD9
:100B6000600D211D822F762F6A2F11249F57504030
:100B70009AF0F1F088234AF0EE0FFF1FBB1F661FAB
:100B8000771F881F91505040A9F79E3F510580F074
:100B90000C94DF050C946C055F3FE4F3983ED4F3AE
:100BA000869577956795B795F795E7959F5FC1F718
:100BB000FE2B880F911D9695879597F9089597F9C3
:100BC0009F6780E870E060E008959FEF80EC0895F3
:100BD00000240A941616170618060906089500241C
:100BE0000A9412161306140605060895092E039496
:100BF000000C11F4882352F0BB0F40F4BF2B11F40A
:100C000060FF04C06F5F7F4F8F4F9F4F0895EE0FBF
:100C1000FF1F0590F491E02D099481E090E0F89495
:100C20000C94EA08AEE0B0E0E8E1F6E00C94C1080C
:100C30000D891E8986E08C831A8309838FEF9FE7D5
:100C40009E838D83AE01475E5F4F6F89788DCE01A5
:100C500001960E9435062F813885F801E20FF31FB7
:100C600010822E96E4E00C94DD08ACE0B0E0EBE3FB
:100C7000F6E00C94B3087C016B018A01FC01178239
:100C80001682838181FFBDC1CE0101964C01F7011F
:100C90009381F60193FD859193FF81916F018823E4
:100CA00009F4ABC1853239F493FD859193FF8191AD
:100CB0006F01853229F4B70190E00E941D08E7CF4B
:100CC000512C312C20E02032A0F48B3269F030F42A
:100CD000803259F0833269F420612CC08D3239F0B2
:100CE000803339F4216026C02260246023C028604C
:100CF00021C027FD27C030ED380F3A3078F426FFA9
:100D000006C0FAE05F9E300D1124532E13C08AE016
:100D1000389E300D1124332E20620CC08E3221F407
:100D200026FD6BC1206406C08C3611F4206802C019
:100D3000883641F4F60193FD859193FF81916F010F
:100D40008111C1CF982F9F7D9554933028F40C5F6B
:100D50001F4FFFE3F9830DC0833631F0833771F005
:100D6000833509F05BC022C0F801808189830E5F62
:100D70001F4F44244394512C540115C03801F2E014
:100D80006F0E711CF801A080B18026FF03C0652D95
:100D900070E002C06FEF7FEFC5012C870E94120840
:100DA0002C0183012C852F77222E17C03801F2E009
:100DB0006F0E711CF801A080B18026FF03C0652D65
:100DC00070E002C06FEF7FEFC5012C870E9407081B
:100DD0002C012C852068222E830123FC1BC0832D2F
:100DE00090E048165906B0F4B70180E290E00E9406
:100DF0001D083A94F4CFF50127FC859127FE8191D7
:100E00005F01B70190E00E941D0831103A94F1E0B3
:100E10004F1A51084114510471F7E5C0843611F09E
:100E2000893639F5F80127FF07C060817181828119
:100E300093810C5F1F4F08C060817181072E000CE9
:100E4000880B990B0E5F1F4F2F76722E97FF09C0EC
:100E500090958095709561957F4F8F4F9F4F20683B
:100E6000722E2AE030E0A4010E945508A82EA8188E
:100E700044C0853729F42F7EB22E2AE030E025C009
:100E8000F22FF97FBF2E8F36C1F018F4883579F034
:100E9000B4C0803719F0883721F0AFC02F2F206100
:100EA000B22EB4FE0DC08B2D8460B82E09C024FF75
:100EB0000AC09F2F9660B92E06C028E030E005C01A
:100EC00020E130E002C020E132E0F801B7FE07C0C7
:100ED00060817181828193810C5F1F4F06C06081A8
:100EE000718180E090E00E5F1F4FA4010E945508C1
:100EF000A82EA818FB2DFF777F2E76FE0BC0372D6E
:100F00003E7FA51450F474FE0AC072FC08C0372D51
:100F10003E7E05C0BA2C372D03C0BA2C01C0B52CBB
:100F200034FF0DC0FE01EA0DF11D8081803311F404
:100F3000397E09C032FF06C0B394B39404C0832F36
:100F4000867809F0B39433FD13C030FF06C05A2CE5
:100F5000B31418F4530C5B18B32CB31468F4B70132
:100F600080E290E03C870E941D08B3943C85F5CF59
:100F7000B31410F43B1801C0312C34FF12C0B70178
:100F800080E390E03C870E941D083C8532FF17C03B
:100F900031FD03C088E790E002C088E590E0B7012A
:100FA0000CC0832F867859F031FF02C08BE201C05C
:100FB00080E237FD8DE2B70190E00E941D08A51484
:100FC00038F4B70180E390E00E941D085A94F7CFEF
:100FD000AA94F401EA0DF11D8081B70190E00E940E
:100FE0001D08A110F5CF332009F451CEB70180E2DE
:100FF00090E00E941D083A94F6CFF7018681978110
:1010000002C08FEF9FEF2C96E2E10C94CF08FC0119
:101010000590615070400110D8F7809590958E0F23
:101020009F1F0895FC016150704001900110D8F796
:10103000809590958E0F9F1F08950F931F93CF93C8
:10104000DF93FB01238121FD03C08FEF9FEF28C0B9
:1010500022FF16C0468157812481358142175307EC
:1010600044F4A081B1819D012F5F3F4F31832083E4
:101070008C93268137812F5F3F4F3783268310C0A3
:10108000EB01092F182F0084F185E02D0995892B9C
:10109000E1F68E819F8101969F838E83812F902F11
:1010A000DF91CF911F910F910895FA01AA2728305F
:1010B00051F1203181F1E8946F936E7F6E5F7F4F25
:1010C0008F4F9F4FAF4FB1E03ED0B4E03CD0670FA1
:1010D000781F891F9A1FA11D680F791F8A1F911DF4
:1010E000A11D6A0F711D811D911DA11D20D009F444
:1010F00068943F912AE0269F11243019305D319386
:10110000DEF6CF010895462F4770405D4193B3E06E
:101110000FD0C9F7F6CF462F4F70405D4A3318F015
:10112000495D31FD4052419302D0A9F7EACFB4E0C6
:10113000A6959795879577956795BA95C9F700977E
:101140006105710508959B01AC010A2E069457951F
:10115000479537952795BA95C9F7620F731F841F76
:10116000951FA01D08952F923F924F925F926F920C
:101170007F928F929F92AF92BF92CF92DF92EF9227
:10118000FF920F931F93CF93DF93CDB7DEB7CA1BA8
:10119000DB0B0FB6F894DEBF0FBECDBF09942A88D3
:1011A000398848885F846E847D848C849B84AA847B
:1011B000B984C884DF80EE80FD800C811B81AA8108
:1011C000B981CE0FD11D0FB6F894DEBF0FBECDBFD3
:0811D000ED010895F894FFCF32
:1011D800000E0A0E0000000000000000B301A60087
:0811E8005C025B0225640000BB
:00000001FF
