:100000000C9434000C943E000C943E000C943E0082
:100010000C943E000C943E000C943E000C943E0068
:100020000C943E000C943E000C943E000C943E0058
:100030000C943E000C943E000C943E000C943E0048
:100040000C943E000C943E000C943E000C943E0038
:100050000C943E000C943E000C943E000C943E0028
:100060000C943E000C943E0011241FBECFEFD8E04C
:10007000DEBFCDBF0E9440000C947A000C940000BB
:100080008FEF84B985B91AB81BB880918100886058
:10009000809381008091810084608093810084E25C
:1000A00094EF909389008093880020E030E082E014
:1000B00090E040E0499941E04A99FBCF4423D1F3D5
:1000C000B19BFECF2F5F3F4F2817390729F425B189
:1000D000209525B920E030E04B9B04C0823091058B
:1000E0000CF001974C9901964D9B02C085E090E081
:0800F000B19AE0CFF894FFCFB4
:00000001FF
