:100000000C9434000C943E000C943E000C943E0082
:100010000C943E000C943E000C943E000C943E0068
:100020000C943E000C943E000C943E000C943E0058
:100030000C943E000C943E000C943E000C943E0048
:100040000C943E000C943E000C943E000C943E0038
:100050000C943E000C943E000C943E000C943E0028
:100060000C943E000C943E0011241FBECFEFD8E04C
:10007000DEBFCDBF0E9440000C94B2000C94000083
:100080008FEF84B915B880917C00806480937C00E8
:1000900080917A00806C80937A00809181008860E2
:1000A000809381008091810084608093810084E24C
:1000B00094EF909389008093880080E090E038E08E
:1000C00044E052E061E020917C00207F20937C009E
:1000D00020917C0020937C0020917A002064209362
:1000E0007A0020917A00206420937A0020917A008F
:1000F00026FDFCCFE0917800F0917900759718F714
:10010000B19BFECF01968530910584F48130910535
:1001100011F465B90BC08230910511F455B906C0D0
:100120008330910511F445B901C035B9FC01379709
:10013000349788F48730910511F435B911C08830AF
:10014000910511F445B90CC08930910511F455B9E8
:1001500007C065B905C08D30910514F080E090E0CE
:08016000B19AB1CFF894FFCF72
:00000001FF
